{
    "contractName": "LandPriceOracle",
    "abi": [
        {
            "inputs": [],
            "stateMutability": "nonpayable",
            "type": "constructor"
        },
        {
            "anonymous": false,
            "inputs": [
                {
                    "indexed": true,
                    "internalType": "bytes32",
                    "name": "id",
                    "type": "bytes32"
                }
            ],
            "name": "ChainlinkCancelled",
            "type": "event"
        },
        {
            "anonymous": false,
            "inputs": [
                {
                    "indexed": true,
                    "internalType": "bytes32",
                    "name": "id",
                    "type": "bytes32"
                }
            ],
            "name": "ChainlinkFulfilled",
            "type": "event"
        },
        {
            "anonymous": false,
            "inputs": [
                {
                    "indexed": true,
                    "internalType": "bytes32",
                    "name": "id",
                    "type": "bytes32"
                }
            ],
            "name": "ChainlinkRequested",
            "type": "event"
        },
        {
            "inputs": [],
            "name": "OilpricePerEth",
            "outputs": [
                {
                    "internalType": "uint256",
                    "name": "",
                    "type": "uint256"
                }
            ],
            "stateMutability": "view",
            "type": "function"
        },
        {
            "inputs": [
                {
                    "internalType": "bytes32",
                    "name": "_requestId",
                    "type": "bytes32"
                },
                {
                    "internalType": "uint256",
                    "name": "_price",
                    "type": "uint256"
                }
            ],
            "name": "fulfill",
            "outputs": [],
            "stateMutability": "nonpayable",
            "type": "function"
        },
        {
            "inputs": [],
            "name": "getLatestEthPrice",
            "outputs": [
                {
                    "internalType": "uint256",
                    "name": "",
                    "type": "uint256"
                }
            ],
            "stateMutability": "view",
            "type": "function"
        },
        {
            "inputs": [],
            "name": "getLatestManaPrice",
            "outputs": [
                {
                    "internalType": "uint256",
                    "name": "",
                    "type": "uint256"
                }
            ],
            "stateMutability": "view",
            "type": "function"
        },
        {
            "inputs": [],
            "name": "owner",
            "outputs": [
                {
                    "internalType": "address",
                    "name": "",
                    "type": "address"
                }
            ],
            "stateMutability": "view",
            "type": "function"
        },
        {
            "inputs": [],
            "name": "price",
            "outputs": [
                {
                    "internalType": "uint256",
                    "name": "",
                    "type": "uint256"
                }
            ],
            "stateMutability": "view",
            "type": "function"
        },
        {
            "inputs": [],
            "name": "requestLandData",
            "outputs": [
                {
                    "internalType": "bytes32",
                    "name": "requestId",
                    "type": "bytes32"
                }
            ],
            "stateMutability": "nonpayable",
            "type": "function"
        }
    ],
    "bytecode": "6080604052600160045534801561001557600080fd5b50600680546001600160a01b0319908116731b93d8e109cfedcbb3cc74ed761de286d57715111790915560078054909116738a753747a1fa494ec906ce90e9f37563a8af630e17905561006f6001600160e01b036100ca16565b600a80546001600160a01b031916732f90a6d021db21e1b2a077c5a37b3c7e75d15b7e1790557f3239666139616131336266313436383738386237636334613530306134356238600b5567016345785d8a0000600c55610178565b61015473c89bd4e1632d3a43cb03aaad5262cbe4038bc5716001600160a01b03166338cc48316040518163ffffffff1660e01b815260040160206040518083038186803b15801561011a57600080fd5b505afa15801561012e573d6000803e3d6000fd5b505050506040513d602081101561014457600080fd5b50516001600160e01b0361015616565b565b600280546001600160a01b0319166001600160a01b0392909216919091179055565b610b99806101876000396000f3fe608060405234801561001057600080fd5b506004361061007d5760003560e01c80637bc74da91161005b5780637bc74da9146100c9578063824c58e0146100d15780638da5cb5b146100d9578063a035b1fe146100fd5761007d565b806330c0b9ec146100825780634357855e1461009c5780635483ac51146100c1575b600080fd5b61008a610105565b60408051918252519081900360200190f35b6100bf600480360360408110156100b257600080fd5b5080359060200135610195565b005b61008a610236565b61008a610257565b61008a61032c565b6100e1610383565b604080516001600160a01b039092168252519081900360200190f35b61008a610392565b600080600080600080600760009054906101000a90046001600160a01b03166001600160a01b031663feaf968c6040518163ffffffff1660e01b815260040160a06040518083038186803b15801561015c57600080fd5b505afa158015610170573d6000803e3d6000fd5b505050506040513d60a081101561018657600080fd5b50602001519550505050505090565b60008281526005602052604090205482906001600160a01b031633146101ec5760405162461bcd60e51b8152600401808060200182810382526028815260200180610b3c6028913960400191505060405180910390fd5b60008181526005602052604080822080546001600160a01b03191690555182917f7cc135e0cebb02c3480ae5d74d377283180a2601f8f644edf7987b009316c63a91a25060095550565b60008061024161032c565b9050600061024d610105565b9190910291505090565b6000610261610a79565b600b5461027690306321abc2af60e11b610398565b90506102be6040518060400160405280600381526020016219d95d60ea1b815250604051806080016040528060508152602001610aec6050913983919063ffffffff6103c316565b61030b604051806040016040528060048152602001630e0c2e8d60e31b8152506040518060400160405280600481526020016336b2b0b760e11b815250836103c39092919063ffffffff16565b600a54600c54610326916001600160a01b03169083906103f2565b91505090565b600080600080600080600660009054906101000a90046001600160a01b03166001600160a01b031663feaf968c6040518163ffffffff1660e01b815260040160a06040518083038186803b15801561015c57600080fd5b6008546001600160a01b031681565b60095481565b6103a0610a79565b6103a8610a79565b6103ba8186868663ffffffff6105c916565b95945050505050565b60808301516103d8908363ffffffff61060616565b60808301516103ed908263ffffffff61060616565b505050565b6004546040805130606090811b60208084019190915260348084018690528451808503909101815260549093018452825192810192909220908601939093526000838152600590915281812080546001600160a01b0319166001600160a01b038816179055905182917fb5e6e01e79f91267dc17b4e6314d5d4d03593d2ceee0fbb452b750bd70ea5af991a26002546001600160a01b0316634000aea0858461049a87610623565b6040518463ffffffff1660e01b815260040180846001600160a01b03166001600160a01b0316815260200183815260200180602001828103825283818151815260200191508051906020019080838360005b838110156105045781810151838201526020016104ec565b50505050905090810190601f1680156105315780820380516001836020036101000a031916815260200191505b50945050505050602060405180830381600087803b15801561055257600080fd5b505af1158015610566573d6000803e3d6000fd5b505050506040513d602081101561057c57600080fd5b50516105b95760405162461bcd60e51b8152600401808060200182810382526023815260200180610ac96023913960400191505060405180910390fd5b6004805460010190559392505050565b6105d1610a79565b6105e1856080015161010061074c565b50509183526001600160a01b031660208301526001600160e01b031916604082015290565b610613826003835161078c565b6103ed828263ffffffff61089c16565b8051602080830151604080850151606086810151608088015151935160006024820181815260448301829052606483018a90526001600160a01b03881660848401526001600160e01b0319861660a484015260c48301849052600160e48401819052610100610104850190815288516101248601528851969b6320214ca360e11b9b949a8b9a91999098909796939591949361014401918501908083838e5b838110156106da5781810151838201526020016106c2565b50505050905090810190601f1680156107075780820380516001836020036101000a031916815260200191505b5060408051601f198184030181529190526020810180516001600160e01b03166001600160e01b0319909d169c909c17909b5250989950505050505050505050919050565b610754610aae565b60208206156107695760208206602003820191505b506020808301829052604080518085526000815283019091019052815b92915050565b601781116107b3576107ad8360e0600585901b16831763ffffffff6108bd16565b506103ed565b60ff81116107e9576107d6836018611fe0600586901b161763ffffffff6108bd16565b506107ad8382600163ffffffff6108d516565b61ffff81116108205761080d836019611fe0600586901b161763ffffffff6108bd16565b506107ad8382600263ffffffff6108d516565b63ffffffff81116108595761084683601a611fe0600586901b161763ffffffff6108bd16565b506107ad8382600463ffffffff6108d516565b67ffffffffffffffff81116103ed5761088383601b611fe0600586901b161763ffffffff6108bd16565b506108968382600863ffffffff6108d516565b50505050565b6108a4610aae565b6108b6838460000151518485516108f6565b9392505050565b6108c5610aae565b6108b683846000015151846109a2565b6108dd610aae565b6108ee8485600001515185856109ed565b949350505050565b6108fe610aae565b825182111561090c57600080fd5b84602001518285011115610936576109368561092e8760200151878601610a4b565b600202610a62565b6000808651805187602083010193508088870111156109555787860182525b505050602084015b6020841061097c5780518252601f19909301926020918201910161095d565b51815160001960208690036101000a019081169019919091161790525083949350505050565b6109aa610aae565b836020015183106109c6576109c6848560200151600202610a62565b8351805160208583010184815350808514156109e3576001810182525b5093949350505050565b6109f5610aae565b84602001518483011115610a1257610a1285858401600202610a62565b60006001836101000a039050855183868201018583198251161781525080518487011115610a405783860181525b509495945050505050565b600081831115610a5c575081610786565b50919050565b8151610a6e838361074c565b50610896838261089c565b6040805160a081018252600080825260208201819052918101829052606081019190915260808101610aa9610aae565b905290565b60405180604001604052806060815260200160008152509056fe756e61626c6520746f207472616e73666572416e6443616c6c20746f206f7261636c6568747470733a2f2f77686973706572696e672d6265796f6e642d32363433342e6865726f6b756170702e636f6d2f646563656e7472616c616e642f6f72646572732f70726963652d6d65616e2f373530536f75726365206d75737420626520746865206f7261636c65206f66207468652072657175657374a26469706673582212206a079a66866851467b0b1be40fbd808276b90f6ef61a2db48a4213c5cda279ee64736f6c63430006000033",
    "sourcePath": "/Users/grape404/Desktop/Development/sol/Properly/contracts/protocol/LandPriceOracle.sol",
    "compiler": {
        "name": "solc",
        "version": "0.6.0+commit.26b70077"
    },
    "functionHashes": {
        "OilpricePerEth()": "5483ac51",
        "fulfill(bytes32,uint256)": "4357855e",
        "getLatestEthPrice()": "30c0b9ec",
        "getLatestManaPrice()": "824c58e0",
        "owner()": "8da5cb5b",
        "price()": "a035b1fe",
        "requestLandData()": "7bc74da9"
    },
    "gasEstimates": {
        "creation": {
            "codeDepositCost": "593800",
            "executionCost": "infinite",
            "totalCost": "infinite"
        },
        "external": {
            "OilpricePerEth()": "infinite",
            "fulfill(bytes32,uint256)": "infinite",
            "getLatestEthPrice()": "infinite",
            "getLatestManaPrice()": "infinite",
            "owner()": "1081",
            "price()": "1064",
            "requestLandData()": "infinite"
        }
    }
}